:100000000200B08054780179007A007B207D527C18
:1000100000120071E4F572F573E57324D7E572649C
:1000200080347F500280028002802BA872A973E97D
:10003000C333F9E833F87420292401F987A0057344
:10004000E57370020572E57324D7E5726480347F2E
:100050005002800280D580BC2280AA898288838B4E
:1000600000EC4D6036E4E0F608A31DBDFFF31C80F4
:10007000F0B800118B00EC4D6021E7F609081DBDBA
:10008000FFF41C80F1898288838B00EC4D600CE4C6
:1000900093F608A31DBDFFF31C80F022E4F5D07594
:1000A000817478207A54F608DAFC1200030200000A
:0300B00002009CAF
:1001000000FF00F600ED00E400DB00D200C900C0F3
:1001100000E000E000E000E000E000E000E000E0DF
:1001200000E000D400C800BC00B000A40098008C1F
:1001300000800080008000800080008000800080BF
:1001400000800080008000800080008000800080AF
:0201500000802D
:00000001FF
