:100000000200F90200E6E4F520F521E52124F8E5F7
:10001000206480347F5002800280028022E52175B6
:10002000F00DA424A0F5A00521E52170020520E52E
:100030002124F8E5206480347F5002800280DE7540
:100040002000752101E52124F7E5206480347F50EC
:100050000280028002801B75A0E00521E52170026C
:100060000520E52124F7E5206480347F50028002DA
:1000700080E5752000752101E52124F8E5206480E4
:10008000347F5002800280028025E52175F005A4AE
:10009000FA74E0C39AF5A00521E52170020520E578
:1000A0002124F8E5206480347F5002800280DB75D3
:1000B0002000752101E52124EFE5206480347F5084
:1000C0000280028002801B75A0800521E52170025C
:1000D0000520E52124EFE5206480347F5002800272
:1000E00080E502000622020006E4F5D0758122F5C3
:0C00F00020F5211200030200000200E9CC
:00000001FF
